:100A5900100E456E7465722050415353574F5244DE
:100A69003A000F1E416363657373204772616E74A8
:100A79006564000E2D4163636573732044656E6977
:100A8900656400053B303037370002400000020C36
:020A990000005B
:100A9C007F307E00120AFB7FE87E03120AB57F309E
:090AAC007E00120AFB7FE87E03C4
:100AB500E4FDFCD3ED9FEC9E5015E4FBFA0BBB0067
:0F0AC500010AEB640B4A70F50DBD00010C80E4D3
:010AD40022FF
:100AFB008F90C2B6C2B7C2B5120AB1D2B5120AB53F
:030B0B00C2B5224E
:100B0E008F90C2B6D2B7C2B5120AB1D2B5120AB51B
:030B1E00C2B5223B
:100AD500120A9C120A9C120AAA7F38120AAC7F01DC
:100AE500120AAC7F0F120AAC7F807E00120AFB7FD0
:060AF500E87E03020AB5D1
:100800007F61EF647370030208FEC2A4D2A5D2A672
:10081000D2A720A0127F31120B0E7580F07F107EC0
:1008200027120AB57F312220A1127F32120B0E75DA
:1008300080F07F107E27120AB57F322220A2127F1D
:1008400033120B0E7580F07F107E27120AB57F33AE
:1008500022D2A4C2A5D2A6D2A720A0127F34120B06
:100860000E7580F07F107E27120AB57F342220A1FA
:10087000127F35120B0E7580F07F107E27120AB59D
:100880007F352220A2127F36120B0E7580F07F106A
:100890007E27120AB57F3622D2A4D2A5C2A6D2A73D
:1008A00020A0127F37120B0E7580F07F107E27126A
:1008B0000AB57F372220A1127F38120B0E7580F007
:1008C0007F107E27120AB57F382220A2127F3912AC
:1008D0000B0E7580F07F107E27120AB57F3922D269
:1008E000A4D2A5D2A6C2A730A1030208027F30126B
:0E08F0000B0E7580F07F107E27120AB57F3048
:0108FE0022D7
:1008FF00E4F59075A00FF5B0120AD5E4F583F582F3
:10090F00AF82740E2FF8E6FF6006120B0EA380F075
:10091F00C2B07FC07E00120AFBE4F583F582120895
:10092F0000AE8274082EF8A607A3E58264044583FF
:10093F0070ECE4F583F5827F01FE120AFBE5086592
:10094F003B7029A3E509653C703CE50A653D7036AF
:10095F00E50B653E7030D2B0F583F582AF82741E21
:10096F002FF8E6FF601B120B0EA380F0E4F583F562
:10097F0082AF82742D2FF8E6FF6006120B0EA38054
:10098F00F0E4F583F582E58245836015E4F583F5A0
:10099F0082AF82742D2FF8E6FF6006120B0EA38034
:1009AF00F07F407E42120AB57F017E00120AFB7F64
:0E09BF00807E00120AFBE4F583F58202090A2D
:030000000209CD25
:0C09CD00787FE4F6D8FD758141020A1421
:1009D9000208FFE493A3F8E493A34003F68001F22D
:1009E90008DFF48029E493A3F85407240CC8C3331F
:1009F900C4540F4420C8834004F456800146F6DFEE
:100A0900E4800B0102040810204080900A59E47E1A
:100A1900019360BCA3FF543F30E509541FFEE493E2
:100A2900A360010ECF54C025E060A840B8E493A3A9
:100A3900FAE493A3F8E493A3C8C582C8CAC583CAD4
:100A4900F0A3C8C582C8CAC583CADFE9DEE780BE8C
:010A9B00005A
:00000001FF
